:020000040800F2
:1000000000000220E9140008351100083B11000827
:1000100041110008471100084D11000800000000C0
:100020000000000000000000000000005311000864
:1000300061110008000000006F1100087D11000828
:100040003915000839150008391500083915000858
:100050003915000839150008391500083915000848
:100060003915000839150008391500083915000838
:100070003915000839150008391500083915000828
:100080003915000839150008391500083915000818
:100090003915000839150008391500083915000808
:1000A00039150008391500083915000839150008F8
:1000B00039150008391500083915000839150008E8
:1000C00039150008391500083915000839150008D8
:1000D00039150008391500083915000839150008C8
:1000E00039150008391500083915000839150008B8
:1000F00039150008391500083915000839150008A8
:100100003915000839150008391500083915000897
:100110003915000839150008391500083915000887
:100120003915000839150008391500083915000877
:100130003915000839150008391500083915000867
:100140003915000839150008391500083915000857
:100150003915000839150008391500083915000847
:100160003915000839150008391500083915000837
:10017000391500083915000839150008000000007D
:080180003915000839150008CB
:1001900010B5054C237833B9044B13B10448AFF3C1
:1001A00000800123237010BD7400002000000000B7
:1001B000F03B000808B5034B1BB103490348AFF3FC
:1001C000008008BD0000000078000020F03B00081F
:1001D000034613F8012B002AFBD1181A0138704787
:1001E00001F0FF01102A2BDB10F0070F08D010F8E8
:1001F000013B013A8B422DD010F0070F42B3F6D1EC
:10020000F0B441EA012141EA014122F007047FF004
:1002100000070023F0E80256083C85EA010586EA5B
:10022000010685FA47F5A3FA87F586FA47F6A5FA97
:1002300087F68EB9EED1F0BC01F0FF0102F00702A3
:1002400032B110F8013B013A83EA010313B1F8D14E
:100250000020704701387047002D06BF354603382F
:10026000073815F0010F07D1013015F4807F02BF68
:10027000013015F4C03F0130F0BC0138704700BFB9
:1002800081F0004102E000BF83F0004330B54FEA47
:1002900041044FEA430594EA050F08BF90EA020FB4
:1002A0001FBF54EA000C55EA020C7FEA645C7FEA47
:1002B000655C00F0E2804FEA5454D4EB5555B8BF6A
:1002C0006D420CDD2C4480EA020281EA030382EADB
:1002D000000083EA010180EA020281EA0303362D6D
:1002E00088BF30BD11F0004F4FEA01314FF4801C40
:1002F0004CEA113102D0404261EB410113F0004F52
:100300004FEA03334CEA133302D0524263EB430308
:1003100094EA050F00F0A780A4F10104D5F1200EA6
:100320000DDB02FA0EFC22FA05F2801841F1000101
:1003300003FA0EF2801843FA05F359410EE0A5F1D5
:1003400020050EF1200E012A03FA0EFC28BF4CF006
:10035000020C43FA05F3C01851EBE37101F00045BC
:1003600007D54FF0000EDCF1000C7EEB00006EEBC9
:100370000101B1F5801F1BD3B1F5001F0CD3490853
:100380005FEA30004FEA3C0C04F101044FEA4452AA
:1003900012F5800F80F09A80BCF1004F08BF5FEA31
:1003A000500C50F1000041EB045141EA050130BD11
:1003B0005FEA4C0C404141EB0101013C28BFB1F523
:1003C000801FE9D291F0000F04BF01460020B1FA6E
:1003D00081F308BF2033A3F10B03B3F120020CDA41
:1003E0000C3208DD02F1140CC2F10C0201FA0CF01F
:1003F00021FA02F10CE002F11402D8BFC2F1200C84
:1004000001FA02F120FA0CFCDCBF41EA0C01904039
:10041000E41AA2BF01EB0451294330BD6FEA040482
:100420001F3C1CDA0C340EDC04F11404C4F120026D
:1004300020FA04F001FA02F340EA030021FA04F37F
:1004400045EA030130BDC4F10C04C4F1200220FAD6
:1004500002F001FA04F340EA0300294630BD21FA14
:1004600004F0294630BD94F0000F83F4801306BFDA
:1004700081F480110134013D4EE77FEA645C18BFCE
:100480007FEA655C29D094EA050F08BF90EA020F65
:1004900005D054EA000C04BF1946104630BD91EA5D
:1004A000030F1EBF0021002030BD5FEA545C05D160
:1004B0004000494128BF41F0004130BD14F580049F
:1004C0003CBF01F5801130BD01F0004545F0FE4113
:1004D00041F470014FF0000030BD7FEA645C1ABF48
:1004E000194610467FEA655C1CBF0B46024650EA7F
:1004F000013406BF52EA033591EA030F41F40021AB
:1005000030BD00BF90F0000F04BF0021704730B530
:100510004FF4806404F132044FF000054FF0000105
:1005200050E700BF90F0000F04BF0021704730B5C6
:100530004FF4806404F1320410F0004548BF40429B
:100540004FF000013EE700BF42004FEAE2014FEAF0
:1005500031014FEA02701FBF12F07F4393F07F4FCB
:1005600081F06051704732F07F4208BF704793F0CE
:100570007F4F04BF41F40021704730B54FF46074E1
:1005800001F0004521F000411CE700BF50EA0102E4
:1005900008BF704730B54FF000050AE050EA01028D
:1005A00008BF704730B511F0004502D5404261EBFD
:1005B00041014FF4806404F132045FEA915C3FF43E
:1005C000D8AE4FF003025FEADC0C18BF03325FEADB
:1005D000DC0C18BF033202EBDC02C2F1200300FA8C
:1005E00003FC20FA02F001FA03FE40EA0E0021FAB1
:1005F00002F11444BDE600BF4FEA4102B2F1E0430C
:1006000024BFB3F5001CDCF1FE5C0DD901F0004CF9
:100610004FEAC0024CEA5070B2F1004F40EB830049
:1006200008BF20F00100704711F0804F21D113F175
:100630003872BCBF01F00040704741F480114FEAAE
:100640005252C2F11802C2F1200C10FA0CF320FA37
:1006500002F018BF40F001004FEAC1234FEAD32354
:1006600003FA0CFC40EA0C0023FA02F34FEA4303BE
:10067000CCE77FEA625307D150EA01331EBF4FF047
:10068000FE4040F44000704701F0004040F0FE4062
:1006900040F40000704700BF53B94AB9002908BFB1
:1006A00000281CBF4FF0FF314FF0FF3000F074B94D
:1006B000ADF1080C6DE904CE00F006F8DDF804E0B9
:1006C000DDE9022304B070472DE9F047089D044698
:1006D0008E46002B4DD18A42944669D9B2FA82F2F5
:1006E00052B101FA02F3C2F1200120FA01F10CFA31
:1006F00002FC41EA030E94404FEA1C48210CBEFB69
:10070000F8F61FFA8CF708FB16E341EA034306FBF1
:1007100007F199420AD91CEB030306F1FF3080F080
:100720001F81994240F21C81023E63445B1AA4B2CD
:10073000B3FBF8F008FB103344EA034400FB07F76F
:10074000A7420AD91CEB040400F1FF3380F00A81B0
:10075000A74240F207816444023840EA0640E41BA5
:1007600000261DB1D4400023C5E900433146BDE851
:10077000F0878B4209D9002D00F0EF800026C5E9F3
:10078000000130463146BDE8F087B3FA83F6002E0B
:100790004AD18B4202D3824200F2F980841A61EB83
:1007A000030301209E46002DE0D0C5E9004EDDE7A1
:1007B00002B9FFDEB2FA82F2002A40F09280A1EB89
:1007C0000C014FEA1C471FFA8CFE0126200CB1FBDE
:1007D000F7F307FB131140EA01410EFB03F08842D7
:1007E00008D91CEB010103F1FF3802D2884200F264
:1007F000CB804346091AA4B2B1FBF7F007FB1011F6
:1008000044EA01440EFB00FEA64508D91CEB040493
:1008100000F1FF3102D2A64500F2BB800846A4EBEE
:100820000E0440EA03409CE7C6F12007B34022FAD9
:1008300007FC4CEA030C20FA07F401FA06F31C4308
:10084000F9404FEA1C4900FA06F3B1FBF9F8200C15
:100850001FFA8CFE09FB181140EA014108FB0EF05B
:10086000884202FA06F20BD91CEB010108F1FF3AAB
:1008700080F08880884240F28580A8F102086144B7
:10088000091AA4B2B1FBF9F009FB101144EA0141C5
:1008900000FB0EFE8E4508D91CEB010100F1FF3470
:1008A0006CD28E456AD90238614440EA0840A0FB08
:1008B0000294A1EB0E01A142C846A64656D353D0DE
:1008C0005DB1B3EB080261EB0E0101FA07F722FA02
:1008D00006F3F1401F43C5E9007100263146BDE82B
:1008E000F087C2F12003D8400CFA02FC21FA03F38E
:1008F000914001434FEA1C471FFA8CFEB3FBF7F00F
:1009000007FB10360B0C43EA064300FB0EF69E4233
:1009100004FA02F408D91CEB030300F1FF382FD2CC
:100920009E422DD9023863449B1B89B2B3FBF7F674
:1009300007FB163341EA034106FB0EF38B4208D94D
:100940001CEB010106F1FF3816D28B4214D9023E8E
:100950006144C91A46EA004638E72E46284605E7AC
:100960000646E3E61846F8E64B45A9D2B9EB02087D
:1009700064EB0C0E0138A3E74646EAE7204694E70D
:100980004046D1E7D0467BE7023B614432E7304640
:1009900009E76444023842E7704700BF80B586B07B
:1009A00000AF7860786800F03DF90346002B2ED048
:1009B0004FF0FF331E222149786802F062F807F1F8
:1009C0000B014FF0FF330122786802F0ECF8FB7A5C
:1009D000792B02D0FB7A592B19D1786800F034F9C1
:1009E0000346002B0AD1786800F0CEF84FF0FF33B1
:1009F00007221349786802F044F808E04FF0FF330B
:100A00000D221049786802F03CF8012311E00E4BEA
:100A10001B687B617B69FB60FB6883F3088800BF10
:100A20000A4B094A9A600A4B1B683B613B6998472D
:100A3000012318461837BD4680BD00BF083C00089A
:100A4000303C0008383C00080000010800ED00E0E0
:100A50000400010880B483B000AF786000BF18467E
:100A60000C37BD465DF8047B70470000B0B584B01C
:100A700000AF7860396000F00DFF0023FB601AE0E2
:100A8000124B19684B1C114A1360FB687A681344B7
:100A90001B78DBB200221C46154622462B4600205E
:100AA00000F0A4FE0346002B03D1FB680133FB607A
:100AB00001E0012306E0FA683B689A42E0DB00F0BF
:100AC0000BFF002318461037BD46B0BD00000020C4
:100AD00080B586B000AF0823BB600423FB6002230F
:100AE0003B6100233B6000F0D5FE07F114023B465A
:100AF0001146184601F030F80346002B01D00123BF
:100B000002E000F0E9FE002318461837BD4680BD1C
:100B100080B586B000AF0423BB600423FB600223D2
:100B20003B6100233B6000F0B5FE07F114023B4639
:100B30001146184601F010F80346002B01D001239E
:100B400002E000F0C9FE002318461837BD4680BDFC
:100B500090B587B000AF786000F0D8F8094B07F186
:100B600008040FCB84E80F0001233B6107F1080361
:100B7000184600F09FF800F0E5F800BF18461C3753
:100B8000BD4690BD00C0000890B587B000AF78604A
:100B900000F0BCF8094B07F108040FCB84E80F0004
:100BA00000233B6107F10803184600F083F800F0CA
:100BB000C9F800BF18461C37BD4690BD00C00008EC
:100BC00090B587B000AF786000F0A0F8144B07F143
:100BD00008040FCB84E80F00FB681846FFF7B4FC4D
:100BE0000DA3D3E90023FFF751FB02460B46104645
:100BF0001946FFF701FD0346FB6007F1080318469D
:100C000000F058F800F09EF800BF18461C37BD46AB
:100C100090BD00BFAFF300809A9999999999B93F17
:100C200000C0000880B584B000AF786000F06EF8B6
:100C3000044B9B68FB7300F085F8FB7B184610376C
:100C4000BD4680BD00C00008B0B584B000AF78607C
:100C5000FFF75EFF00F01EFE144BFB60144BBB6001
:100C600017E0BB681B6800221C46154622462B462F
:100C7000F968022000F0BAFD0346012B03D100F011
:100C80002BFE01230DE0FB680433FB60BB680433DB
:100C9000BB60BB681B68B3F1FF3FE2D100F01CFEF4
:100CA000002318461037BD46B0BD00BF0000010844
:100CB00000000808B0B584B000AF786000F026F8F6
:100CC000114BFB607B68BB6014E0F9684B1CFB6058
:100CD000BB685A1CBA601B78DBB200221C46154662
:100CE00022462B46002000F081FD0346012B01D156
:100CF000012305E0BB681B78FF2BE6D100F022F84A
:100D000018461037BD46B0BD00C0000880B500AF22
:100D100000F0C0FD0A4B1B69094A23F440731361BC
:100D2000074B1B69064A43F400731361044B1B69AC
:100D3000034A43F00103136100BF184680BD00BFA2
:100D4000003C024080B500AF054B1B69044A23F00C
:100D50000103136100F0C0FD00BF184680BD00BF55
:100D6000003C024080B500AF00F0E8FB00F016F850
:100D700000F09CF800F070F80121064801F0AAF993
:100D80000346012B02D100F0F1F802E00248FFF720
:100D900005FEFEE7000002409000002080B594B000
:100DA00000AF07F1200330220021184602F0AAFA12
:100DB00007F10C0300221A605A609A60DA601A6127
:100DC0000023BB60224B1B6C214A43F08053136409
:100DD0001F4B1B6C03F08053BB60BB6800237B6020
:100DE0001C4B1B681B4A43F480431360194B1B6860
:100DF00003F480437B607B6802233B620123FB6238
:100E000010233B630023BB6307F12003184601F066
:100E100093F90346002B01D000F0F6F80F23FB6096
:100E200000233B6100237B610023BB610023FB6146
:100E300007F10C030021184601F0F6FB0346002BD6
:100E400001D000F0E1F800BF5037BD4680BD00BFC3
:100E5000003802400070004080B500AF114B124ACC
:100E60001A60104B4FF4E1325A600E4B00229A6028
:100E70000C4B0022DA600B4B00221A61094B0C224A
:100E80005A61084B00229A61064B0022DA6105483C
:100E900001F0AAFD0346002B01D000F0B5F800BF19
:100EA00080BD00BF900000200050004080B588B099
:100EB00000AF07F10C0300221A605A609A60DA60F2
:100EC0001A610023BB60264B1B6B254A43F00103CC
:100ED0001363234B1B6B03F00103BB60BB68002350
:100EE0007B601F4B1B6B1E4A43F0080313631C4BB4
:100EF0001B6B03F008037B607B6800233B60184B8F
:100F00001B6B174A43F004031363154B1B6B03F071
:100F100004033B603B6800224FF47041114801F02C
:100F2000F1F80123FB6000233B6100237B6107F1A3
:100F30000C0319460C4800F031FF4FF47043FB607E
:100F400001233B6100237B610023BB6107F10C039C
:100F50001946044800F022FF00BF2037BD4680BD7F
:100F600000380240000C02400000024080B500AF93
:100F700001224FF470411E4801F0C4F84FF0FF33D6
:100F800016221C491C4801F07CFD4FF0FF33012262
:100F90001A49194801F007FE184B1B78322B06D06E
:100FA000322B1CDC302B06D0312B08D017E0124836
:100FB000FFF750FD1AE01048FFF7F0FC16E0FFF7CE
:100FC00087FD0D4800F07EF90346012BF9D14FF063
:100FD000FF3305220A49084801F053FDFEE74FF0B0
:100FE000FF330D220749044801F04BFDCDE700BF58
:100FF000000C0240483C000890000020D400002073
:10100000603C0008683C000880B400AF72B600BFC6
:10101000FEE7000080B483B000AF00237B60104B7C
:101020005B6C0F4A43F4804353640D4B5B6C03F4D9
:1010300080437B607B6800233B60094B1B6C084A44
:1010400043F080531364064B1B6C03F080533B60EA
:101050003B6800BF0C37BD465DF8047B704700BF9E
:101060000038024080B58AB000AF786007F1140301
:1010700000221A605A609A60DA601A617B681B6805
:10108000284A93424AD100233B61274B1B6C264AD6
:1010900043F480131364244B1B6C03F480133B61F3
:1010A0003B690023FB60204B1B6B1F4A43F004038A
:1010B00013631D4B1B6B03F00403FB60FB680023F1
:1010C000BB60194B1B6B184A43F008031363164BA4
:1010D0001B6B03F00803BB60BB684FF480537B615C
:1010E0000223BB610023FB6103233B6208237B6275
:1010F00007F1140319460D4800F050FE04237B61EC
:101100000223BB610023FB6103233B6208237B6254
:1011100007F114031946064800F040FE00BF2837C7
:10112000BD4680BD0050004000380240000802402B
:10113000000C024080B400AFFEE780B400AFFEE7D1
:1011400080B400AFFEE780B400AFFEE780B400AF2C
:10115000FEE780B400AF00BFBD465DF8047B70477A
:1011600080B400AF00BFBD465DF8047B704780B41B
:1011700000AF00BFBD465DF8047B704780B500AF8F
:1011800000F02EFA00BF80BD80B586B000AF786059
:10119000144A154BD31A7B617B693B61134B1B6867
:1011A000002B02D1114B124A1A60104B1A687B684F
:1011B00013443A699A4207D202F07AF803460C22A5
:1011C0001A604FF0FF3309E0084B1B68FB60074BC8
:1011D0001A687B681344054A1360FB681846183781
:1011E000BD4680BD00000220000400009C010020DC
:1011F000D801002080B400AF064BD3F88830054AF0
:1012000043F47003C2F8883000BFBD465DF8047B2C
:10121000704700BF00ED00E080B485B000AF78609B
:1012200039600023FB731EE07B685A1C7A601A78D1
:10123000FB7B5340FB730823BB7397F90F30002BE4
:1012400008DAFB7B5B005BB283F06803DB435BB2D5
:10125000FB7302E0FB7B5B00FB73BB7B013BBB735F
:10126000BB7B002BE9D13B68013B3B603B68002B1B
:10127000DADAFB7B18461437BD465DF8047B70470D
:1012800080B584B000AF78600023FB731523BB7377
:101290000FE007F10E014FF0FF330122786801F0F3
:1012A000F0FB07F10F014FF47A730122786801F027
:1012B0007AFCFB7B022BECD1FB7B18461037BD463A
:1012C00080BD000080B5ADF5886D00AF07F588637F
:1012D000A3F23C43186007F58863A3F584630022FA
:1012E0001A60043340F216420021184602F00AF850
:1012F000794B1B78002B0ED107F58863A3F23C4392
:101300001868FFF7BDFF03461A4607F58863A3F286
:1013100021431A700BE007F11F0107F58863A3F260
:101320003C404FF0FF330122006801F03CFC07F520
:101330008863A3F221431B78022B02DC002B04DC20
:10134000C5E0042B00F09480C1E007F58863A3F2A8
:101350003C404FF0FF3301225F49006801F023FC5D
:1013600007F11C0107F58863A3F23C404FF0FF33FF
:101370000222006801F017FC07F11C031B88A7F884
:101380003E34B7F83E2407F1200107F58863A3F245
:101390003C404FF0FF33006801F005FC07F11B01F2
:1013A00007F58863A3F23C404FF0FF330122006849
:1013B00001F0F9FBB7F83E2407F120031146184667
:1013C000FFF72AFF034687F83D3407F58863A3F249
:1013D00025431B7897F83D249A4213D007F588637C
:1013E000A3F2264315221A7007F11A0107F5886344
:1013F000A3F23C404FF0FF330122006801F041FBB3
:10140000012364E007F58863A3F2264306221A70DD
:1014100007F11A0107F58863A3F23C404FF0FF3350
:101420000122006801F02DFBB7F83E2407F12003EC
:1014300011461846FFF71AFB274B1B781A4607F18F
:101440000C032649184601F065FF07F10C03184606
:10145000FEF7BEFE03469AB207F10C0107F588635A
:10146000A3F23C404FF0FF33006801F00AFB2EE08E
:1014700007F58863A3F23C431868FFF7A1FB07F563
:101480008863A3F23C431868FFF762FB07F58863A3
:10149000A3F23C404FF0FF330F221149006801F0E6
:1014A000F0FA07F58863A3F23C431868FFF776FA71
:1014B0000346012B0BD107F58863A3F23C404FF0A4
:1014C000FF3305220749006801F0DBFAFEE7184602
:1014D00007F58867BD4680BDA0010020783C000864
:1014E000843C0008943C0008DFF834D00D480E49D5
:1014F0000E4A002302E0D458C4500433C4188C426E
:10150000F9D30B4A0B4C002301E013600432A242D2
:10151000FBD3FFF76FFE01F0D1FEFFF723FC70470E
:10152000000002200000002074000020F83C0008A9
:1015300074000020D8010020FEE7000080B500AF55
:101540000E4B1B680D4A43F4007313600B4B1B6872
:101550000A4A43F480631360084B1B68074A43F44C
:1015600080731360032000F00DF90F2000F008F8DD
:10157000FFF750FD0023184680BD00BF003C02402D
:1015800080B582B000AF7860124B1A68124B1B789E
:1015900019464FF47A73B3FBF1F3B2FBF3F3184639
:1015A00000F017F90346002B01D001230EE07B6801
:1015B0000F2B0AD8002279684FF0FF3000F0EDF8C9
:1015C000064A7B681360002300E0012318460837B1
:1015D000BD4680BD040000200C0000200800002053
:1015E00080B400AF064B1B781A46064B1B681344A9
:1015F000044A136000BFBD465DF8047B704700BF1E
:101600000C000020A401002080B400AF034B1B6835
:101610001846BD465DF8047B704700BFA40100205A
:1016200080B485B000AF78607B6803F00703FB608F
:101630000C4BDB68BB60BA684FF6FF031340BB601E
:10164000FB681A02BB68134343F0BF6343F40033E3
:10165000BB60044ABB68D36000BF1437BD465DF869
:10166000047B704700ED00E080B400AF044BDB6802
:101670001B0A03F007031846BD465DF8047B70475C
:1016800000ED00E080B483B000AF03463960FB7129
:1016900097F90730002B0ADB3B68DAB20C4997F95F
:1016A00007301201D2B20B4483F800230AE03B68F2
:1016B000DAB20849FB7903F00F03043B1201D2B2FE
:1016C0000B441A7600BF0C37BD465DF8047B7047AB
:1016D00000E100E000ED00E080B489B000AFF86008
:1016E000B9607A60FB6803F00703FB61FB69C3F133
:1016F0000703042B28BF0423BB61FB690433062BBB
:1017000002D9FB69033B00E000237B614FF0FF320D
:10171000BB6902FA03F3DA43BB681A407B699A405B
:101720004FF0FF317B6901FA03F3D9437B680B402B
:10173000134318462437BD465DF8047B704700000C
:1017400080B582B000AF78607B68013BB3F1807FE9
:1017500001D301230FE00A4A7B68013B53600F214C
:101760004FF0FF30FFF78EFF054B00229A60044BCD
:1017700007221A60002318460837BD4680BD00BF07
:1017800010E000E080B582B000AF78607868FFF7C5
:1017900047FF00BF0837BD4680BD80B586B000AFAB
:1017A0000346B9607A60FB7300237B61FFF75CFF3F
:1017B00078617A68B9687869FFF78EFF024697F911
:1017C0000F3011461846FFF75DFF00BF1837BD46C2
:1017D00080BD80B582B000AF78607868FFF7B0FF59
:1017E000034618460837BD4680BD000080B586B068
:1017F00000AFF860B960C7E900230123FB75234BF4
:101800001B7E012B01D102233BE0204B01221A76E3
:101810004CF2503000F070F80346FB75FB7D002B56
:101820002BD1FB68002B05D13B781946B86800F036
:101830001BF916E0FB68012B05D13B881946B868F7
:1018400000F0EEF80DE0FB68022B05D13B6819466D
:10185000B86800F0C3F804E0D7E90023B86800F0E6
:101860008BF84CF2503000F047F80346FB75084BFC
:101870001B69074A23F001031361044B00221A7607
:10188000FB7D18461837BD4680BD00BFA80100206B
:10189000003C024080B483B000AF0023FB710B4BCF
:1018A0001B69002B0BDA094B094A5A60074B094A9E
:1018B0005A60064B1B69002B01DA0123FB71FB798F
:1018C00018460C37BD465DF8047B7047003C02406B
:1018D00023016745AB89EFCD80B400AF054B1B6991
:1018E000044A43F00043136100231846BD465DF8E7
:1018F000047B7047003C024080B584B000AF786044
:101900000023FB601A4B0022DA61FFF77DFEF860CE
:1019100010E07B68B3F1FF3F0CD07B68002B07D051
:10192000FFF772FE0246FB68D31A7A689A4201D228
:10193000032319E00F4BDB6803F48033002BE8D15D
:101940000C4BDB6803F00103002B02D0094B012292
:10195000DA60084BDB6803F0F203002B03D000F0E1
:10196000A5F8012300E0002318461037BD4680BDCE
:10197000A8010020003C024080B485B000AFF860B0
:10198000C7E90023144B1B69134A23F44073136106
:10199000114B1B69104A43F4407313610E4B1B69D2
:1019A0000D4A43F001031361FB683A681A60BFF304
:1019B0006F8F00BFD7E900014FF000024FF0000326
:1019C0000A000023F968043113460B6000BF143786
:1019D000BD465DF8047B7047003C024080B483B094
:1019E00000AF786039600D4B1B690C4A23F44073DB
:1019F00013610A4B1B69094A43F400731361074BD7
:101A00001B69064A43F0010313617B683A681A6058
:101A100000BF0C37BD465DF8047B7047003C0240B8
:101A200080B483B000AF78600B467B800D4B1B69A0
:101A30000C4A23F4407313610A4B1B69094A43F4AF
:101A400080731361074B1B69064A43F0010313615E
:101A50007B687A881A8000BF0C37BD465DF8047B2E
:101A6000704700BF003C024080B483B000AF786094
:101A70000B46FB700C4B1B690B4A23F4407313613C
:101A8000094B094A1B691361074B1B69064A43F05E
:101A9000010313617B68FA781A7000BF0C37BD46EA
:101AA0005DF8047B704700BF003C024080B400AF8B
:101AB000274BDB6803F01003002B08D0254BDB69B4
:101AC00043F01003234AD361214B1022DA60204BEC
:101AD000DB6803F02003002B08D01E4BDB6943F0CA
:101AE00008031C4AD3611A4B2022DA60184BDB68CA
:101AF00003F04003002B08D0164BDB6943F00403CE
:101B0000144AD361124B4022DA60114BDB6803F0B8
:101B10008003002B08D00F4BDB6943F002030D4A12
:101B2000D3610B4B8022DA60094BDB6803F00203C0
:101B3000002B08D0074BDB6943F02003054AD36133
:101B4000034B0222DA6000BFBD465DF8047B70479C
:101B5000003C0240A801002080B584B000AF78604E
:101B600039600123FB730023BB60314B1B7E012BCB
:101B700001D1022358E02E4B01221A764CF250304C
:101B8000FFF7BAFE0346FB73FB7B002B48D13B6893
:101B90004FF0FF321A607B681B68012B15D17B6800
:101BA0001B69DAB27B685B681946104600F044F89E
:101BB0004CF25030FFF7A0FE0346FB731D4B1B6930
:101BC0001C4A23F00403136128E07B689B68BB6018
:101BD0001CE07B681B69DBB21946B86800F050F85E
:101BE0004CF25030FFF788FE0346FB73114B1B6924
:101BF000104A23F0FA031361FB7B002B03D03B68F0
:101C0000BA681A600AE0BB680133BB607B68DA68B7
:101C10007B689B681344BA689A42DAD300F078F87C
:101C2000034B00221A76FB7B18461037BD4680BD59
:101C3000A8010020003C024080B483B000AF0346FE
:101C40003960FB710D4B1B690C4A23F4407313611F
:101C50000A4B1B69094A43F004031361074B1A69D5
:101C6000FB791B021343054A43F48033136100BF21
:101C70000C37BD465DF8047B704700BF003C024056
:101C800080B485B000AF78600B46FB700023FB602A
:101C9000FB78002B02D10023FB6010E0FB78012BC6
:101CA00003D14FF48073FB6009E0FB78022B03D172
:101CB0004FF40073FB6002E04FF44073FB60134B82
:101CC0001B69124A23F440731361104B1A690F49C0
:101CD000FB6813430B610D4B1B690C4A23F0F8039F
:101CE00013610A4B1A697B68DB001343074A43F010
:101CF00002031361054B1B69044A43F480331361EB
:101D000000BF1437BD465DF8047B7047003C0240BD
:101D100080B400AF204B1B6803F40073002B17D076
:101D20001D4B1B681C4A23F4007313601A4B1B687D
:101D3000194A43F400631360174B1B68164A23F4D7
:101D400000631360144B1B68134A43F40073136061
:101D5000114B1B6803F48063002B17D00E4B1B68DC
:101D60000D4A23F4806313600B4B1B680A4A43F44B
:101D700080531360084B1B68074A23F48053136099
:101D8000054B1B68044A43F48063136000BFBD46E3
:101D90005DF8047B704700BF003C024080B489B00E
:101DA00000AF7860396000237B6100233B61002332
:101DB000BB610023FB616BE10122FB6902FA03F3C3
:101DC0007B613B681B687A6913403B613A697B69B8
:101DD0009A4240F05A813B685B6803F00303012B91
:101DE00005D03B685B6803F00303022B30D17B68AE
:101DF0009B68BB61FB695B00032202FA03F3DB43D0
:101E0000BA691340BB613B68DA68FB695B0002FAA0
:101E100003F3BA691343BB617B68BA699A607B6854
:101E20005B68BB610122FB6902FA03F3DB43BA6919
:101E30001340BB613B685B681B0903F00102FB694F
:101E400002FA03F3BA691343BB617B68BA695A604B
:101E50003B685B6803F00303032B17D07B68DB68E8
:101E6000BB61FB695B00032202FA03F3DB43BA693F
:101E70001340BB613B689A68FB695B0002FA03F39D
:101E8000BA691343BB617B68BA69DA603B685B6817
:101E900003F00303022B23D1FB69DA087B680832C5
:101EA00053F82230BB61FB6903F007039B000F224C
:101EB00002FA03F3DB43BA691340BB613B681A695A
:101EC000FB6903F007039B0002FA03F3BA691343AB
:101ED000BB61FB69DA087B680832B96943F82210F4
:101EE0007B681B68BB61FB695B00032202FA03F39A
:101EF000DB43BA691340BB613B685B6803F00302D4
:101F0000FB695B0002FA03F3BA691343BB617B68A8
:101F1000BA691A603B685B6803F44033002B00F039
:101F2000B4800023FB60604B5B6C5F4A43F48043EA
:101F300053645D4B5B6C03F48043FB60FB685B4A5E
:101F4000FB699B08023352F82330BB61FB6903F045
:101F500003039B000F2202FA03F3DB43BA69134029
:101F6000BB617B68524A93422BD07B68514A9342B3
:101F700025D07B68504A93421FD07B684F4A9342DA
:101F800019D07B684E4A934213D07B684D4A9342E6
:101F90000DD07B684C4A934207D07B684B4A9342F2
:101FA00001D107230EE008230CE006230AE00523F5
:101FB00008E0042306E0032304E0022302E00123F7
:101FC00000E00023FA6902F0030292009340BA692C
:101FD0001343BB613549FB699B080233BA6941F879
:101FE00023203B4B9B68BB613B69DB43BA691340D1
:101FF000BB613B685B6803F48013002B03D0BA69B4
:102000003B691343BB61324ABB699360304BDB6869
:10201000BB613B69DB43BA691340BB613B685B68EA
:1020200003F40013002B03D0BA693B691343BB616F
:10203000274ABB69D360264B5B68BB613B69DB43C6
:10204000BA691340BB613B685B6803F40033002B43
:1020500003D0BA693B691343BB611D4ABB69536036
:102060001B4B1B68BB613B69DB43BA691340BB6117
:102070003B685B6803F48033002B03D0BA693B698B
:102080001343BB61124ABB691360FB690133FB61F7
:10209000FB690F2B7FF690AE00BF00BF2437BD4613
:1020A0005DF8047B704700BF0038024000380140F3
:1020B000000002400004024000080240000C024000
:1020C000001002400014024000180240001C0240B0
:1020D000003C014080B485B000AF78600B467B8047
:1020E0007B681A697B881340002B02D00123FB73A5
:1020F00001E00023FB73FB7B18461437BD465DF8F7
:10210000047B704780B483B000AF78600B467B805F
:1021100013467B707B78002B03D07A887B689A61AA
:1021200003E07B881A047B689A6100BF0C37BD46C8
:102130005DF8047B7047000080B586B000AF786022
:102140007B68002B01D1012367E27B681B6803F0E9
:102150000103002B75D0884B9B6803F00C03042B04
:102160000CD0854B9B6803F00C03082B12D1824BDB
:102170005B6803F48003B3F5800F0BD17E4B1B68C3
:1021800003F40033002B5BD07B685B68002B57D1D6
:10219000012342E27B685B68B3F5803F06D1764B52
:1021A0001B68754A43F4803313601DE07B685B68ED
:1021B000B3F5A02F0CD1704B1B686F4A43F48023FA
:1021C00013606D4B1B686C4A43F4803313600BE063
:1021D000694B1B68684A23F480331360664B1B68A5
:1021E000654A23F4802313607B685B68002B13D05F
:1021F000FFF70AFA386108E0FFF706FA02463B6982
:10220000D31A642B01D9032307E25B4B1B6803F449
:102210000033002BF0D014E0FFF7F6F9386108E046
:10222000FFF7F2F902463B69D31A642B01D9032365
:10223000F3E1514B1B6803F40033002BF0D100E0B5
:1022400000BF7B681B6803F00203002B63D04A4B7E
:102250009B6803F00C03002B0BD0474B9B6803F0EB
:102260000C03082B1CD1444B5B6803F48003002B48
:1022700016D1414B1B6803F00203002B05D07B688D
:10228000DB68012B01D00123C7E13B4B1B6823F026
:10229000F8027B681B69DB00374913430B603AE0A7
:1022A0007B68DB68002B20D0344B01221A60FFF7DB
:1022B000ABF9386108E0FFF7A7F902463B69D31A8A
:1022C000022B01D90323A8E12B4B1B6803F0020367
:1022D000002BF0D0284B1B6823F0F8027B681B69A9
:1022E000DB00254913430B6015E0244B00221A60E4
:1022F000FFF78AF9386108E0FFF786F902463B6983
:10230000D31A022B01D9032387E11B4B1B6803F06F
:102310000203002BF0D17B681B6803F00803002B3D
:1023200036D07B685B69002B16D0154B01221A60F2
:10233000FFF76AF9386108E0FFF766F902463B6982
:10234000D31A022B01D9032367E10B4B5B6F03F018
:102350000203002BF0D01BE0094B00221A60FFF7AC
:1023600053F938610EE0FFF74FF902463B69D31A83
:10237000022B07D9032350E10038024000004742F6
:10238000800E4742884B5B6F03F00203002BEAD1BB
:102390007B681B6803F00403002B00F09780002388
:1023A000FB75814B1B6C03F08053002B0FD1002376
:1023B000BB607D4B1B6C7C4A43F0805313647A4BAB
:1023C0001B6C03F08053BB60BB680123FB75774B2C
:1023D0001B6803F48073002B18D1744B1B68734A7D
:1023E00043F480731360FFF70FF9386108E0FFF7DB
:1023F0000BF902463B69D31A022B01D903230CE1E6
:102400006A4B1B6803F48073002BF0D07B689B68D9
:10241000012B06D1644B1B6F634A43F00103136722
:102420001CE07B689B68052B0CD15F4B1B6F5E4AE1
:1024300043F0040313675C4B1B6F5B4A43F00103DB
:1024400013670BE0584B1B6F574A23F001031367C8
:10245000554B1B6F544A23F0040313677B689B683A
:10246000002B15D0FFF7D0F838610AE0FFF7CCF861
:1024700002463B69D31A41F28832934201D90323C1
:10248000CBE0494B1B6F03F00203002BEED014E0AE
:10249000FFF7BAF838610AE0FFF7B6F802463B6981
:1024A000D31A41F28832934201D90323B5E03E4B5F
:1024B0001B6F03F00203002BEED1FB7D012B05D136
:1024C000394B1B6C384A23F0805313647B689B693B
:1024D000002B00F0A180344B9B6803F00C03082B09
:1024E0005CD07B689B69022B41D1314B00221A6082
:1024F000FFF78AF8386108E0FFF786F802463B6983
:10250000D31A022B01D9032387E0274B1B6803F062
:102510000073002BF0D17B68DA697B681B6A1A4371
:102520007B685B6A9B011A437B689B6A5B08013B83
:102530001B041A437B68DB6A1B061B4913434B6071
:102540001B4B01221A60FFF75FF8386108E0FFF7C4
:102550005BF802463B69D31A022B01D903235CE0E6
:10256000114B1B6803F00073002BF0D054E0104BAC
:1025700000221A60FFF748F8386108E0FFF744F8D6
:1025800002463B69D31A022B01D9032345E0064BCF
:102590001B6803F00073002BF0D13DE07B689B6962
:1025A000012B07D1012338E00038024000700040C1
:1025B000600047421B4B5B68FB607B689B69012B9B
:1025C00028D0FB6803F480027B68DB699A4221D142
:1025D000FB6803F03F027B681B6A9A421AD1FA68D3
:1025E00047F6C07313407A68526A9201934211D140
:1025F000FB6803F440327B689B6A5B08013B1B0469
:102600009A4207D1FB6803F070627B68DB6A1B06A5
:102610009A4201D0012300E0002318461837BD4636
:1026200080BD00BF0038024080B584B000AF786044
:1026300039607B68002B01D10123CCE0684B1B681B
:1026400003F007033A689A420CD9654B3A68D2B254
:102650001A70634B1B6803F007033A689A4201D073
:102660000123B8E07B681B6803F00203002B20D035
:102670007B681B6803F00403002B05D0594B9B6853
:10268000584A43F4E05393607B681B6803F00803E7
:10269000002B05D0534B9B68524A43F46043936030
:1026A000504B9B6823F0F0027B689B684D491343B5
:1026B0008B607B681B6803F00103002B44D07B68B0
:1026C0005B68012B07D1474B1B6803F40033002BD9
:1026D00019D101237FE07B685B68022B03D07B6804
:1026E0005B68032B07D13F4B1B6803F00073002B83
:1026F00009D101236FE03B4B1B6803F00203002B61
:1027000001D1012367E0374B9B6823F003027B680C
:102710005B68344913438B60FEF776FFF8600AE08C
:10272000FEF772FF0246FB68D31A41F288329342E9
:1027300001D903234FE02B4B9B6803F00C027B680D
:102740005B689B009A42EBD1254B1B6803F00703A3
:102750003A689A420CD2224B3A68D2B21A70204B95
:102760001B6803F007033A689A4201D0012332E064
:102770007B681B6803F00403002B08D0194B9B688F
:1027800023F4E0527B68DB68164913438B607B6857
:102790001B6803F00803002B09D0124B9B6823F43D
:1027A00060427B681B69DB000E4913438B6000F0BD
:1027B00021F802460B4B9B681B0903F00F030A49E3
:1027C000CB5C22FA03F3094A1360094B1B681846D5
:1027D000FEF7D6FE002318461037BD4680BD00BF69
:1027E000003C0240003802409C3C000804000020ED
:1027F000080000202DE9B04F90B000AF00237B63AC
:102800000023FB6300233B630023BB63594B9B689E
:1028100003F00C03082B0DD0082B00F2A180002B35
:1028200002D0042B03D09BE0534BBB639BE0534B84
:10283000BB6398E04F4B5B6803F03F037B634D4BFA
:102840005B6803F48003002B28D04A4B5B689B092C
:1028500000223B627A623B6AC3F308000021474BC7
:1028600003FB01F2002300FB03F31344434AA0FBE4
:102870000212FA620A46BA62FA6A1344FB627B6B7E
:102880000022BB61FA61D7E90623D7E90A01FDF707
:1028900003FF02460B461346FB6353E0354B5B6870
:1028A0009B0900223B617A613B69C3F3080A4FF040
:1028B000000B52465B464FF000004FF000015901FB
:1028C00041EAD261500102460B46B2EB0A0863EBC3
:1028D0000B094FF000024FF000034FEA891343EA5F
:1028E00098634FEA8812B2EB080463EB09054FF0D6
:1028F00000024FF00003EB0043EA5473E200144679
:102900001D4614EB0A033B6045EB0B037B604FF065
:1029100000024FF00003D7E9004529468B0221460B
:1029200043EA915321468A02104619467B6B0022E6
:10293000BB60FA60D7E90223FDF7AEFE02460B4604
:102940001346FB630B4B5B681B0C03F00303013363
:102950005B003B63FA6B3B6BB2FBF3F3BB6302E0E0
:10296000054BBB6300BFBB6B18464037BD46BDE897
:10297000B08F00BF003802400024F40040787D0191
:1029800080B400AF034B1B681846BD465DF8047B5E
:10299000704700BF0400002080B500AFFFF7F0FFD4
:1029A0000246054B9B689B0A03F007030349CB5C77
:1029B00022FA03F3184680BD00380240AC3C000800
:1029C00080B500AFFFF7DCFF0246054B9B685B0B51
:1029D00003F007030349CB5C22FA03F3184680BDDA
:1029E00000380240AC3C000880B582B000AF78608F
:1029F0007B68002B01D101233FE07B6893F83D30D9
:102A0000DBB2002B06D17B68002283F83C2078687B
:102A1000FEF728FB7B68242283F83D207B681B6837
:102A2000DA687B681B6822F40052DA60786800F08C
:102A3000CBF97B681B681A697B681B6822F490429B
:102A40001A617B681B685A697B681B6822F02A023E
:102A50005A617B681B68DA687B681B6842F4005225
:102A6000DA607B6800221A647B68202283F83D20AC
:102A70007B68202283F83E20002318460837BD4695
:102A800080BD80B58AB002AFF860B9603B60134684
:102A9000FB8000237B61FB6893F83D30DBB2202B89
:102AA0007CD1BB68002B02D0FB88002B01D1012315
:102AB00075E0FB6893F83C30012B01D102236EE0F6
:102AC000FB68012283F83C20FB6800221A64FB6843
:102AD000212283F83D20FEF797FD7861FB68FA8894
:102AE0009A84FB68FA88DA84FB689B68B3F5805F98
:102AF00008D1FB681B69002B04D10023FB61BB6874
:102B0000BB6103E0BB68FB610023BB61FB68002283
:102B100083F83C202AE03B6800937B6900228021F7
:102B2000F86800F0E2F80346002B01D0032336E0FA
:102B3000FB69002B0BD1BB691B881A46FB681B681D
:102B4000C2F308025A60BB690233BB6107E0FB694C
:102B50001A78FB681B685A60FB690133FB61FB68EC
:102B6000DB8C9BB2013B9AB2FB68DA84FB68DB8C9E
:102B70009BB2002BCFD13B6800937B6900224021A0
:102B8000F86800F0B2F80346002B01D0032306E0FA
:102B9000FB68202283F83D20002300E00223184632
:102BA0002037BD4680BD80B58AB002AFF860B960FD
:102BB0003B601346FB8000237B61FB6893F83E304B
:102BC000DBB2202B40F08C80BB68002B02D0FB884E
:102BD000002B01D1012384E0FB6893F83C30012BEA
:102BE00001D102237DE0FB68012283F83C20FB68D1
:102BF00000221A64FB68222283F83E20FB68002230
:102C00001A63FEF701FD7861FB68FA889A85FB6814
:102C1000FA88DA85FB689B68B3F5805F08D1FB68AA
:102C20001B69002B04D10023FB61BB68BB6103E07F
:102C3000BB68FB610023BB61FB68002283F83C207A
:102C400043E03B6800937B6900222021F86800F094
:102C50004CF80346002B01D0032342E0FB69002B14
:102C60000CD1FB681B685B689BB2C3F308039AB284
:102C7000BB691A80BB690233BB611FE0FB689B68BC
:102C8000B3F5805F07D0FB689B68002B0AD1FB6817
:102C90001B69002B06D1FB681B685B68DAB2FB6915
:102CA0001A7008E0FB681B685B68DBB203F07F0307
:102CB000DAB2FB691A70FB690133FB61FB68DB8DDB
:102CC0009BB2013B9AB2FB68DA85FB68DB8D9BB255
:102CD000002BB6D1FB68202283F83E20002300E0C1
:102CE000022318462037BD4680BD80B590B000AFA6
:102CF000F860B9603B601346FB7150E0BB6CB3F108
:102D0000FF3F4CD0BB6C002B07D0FEF77DFC02468A
:102D10003B68D31ABA6C9A4241D2FB681B680C33E9
:102D2000BB62BB6A53E8003F7B627B6A23F4D073CB
:102D3000FB63FB681B680C33FA6B7A633B63396B8C
:102D40007A6B41E80023FB62FB6A002BE5D1FB684C
:102D50001B6814337B617B6953E8003F3B613B692F
:102D600023F00103BB63FB681B681433BA6B3A6240
:102D7000FB61F9693A6A41E80023BB61BB69002B3A
:102D8000E5D1FB68202283F83D20FB68202283F8F0
:102D90003E20FB68002283F83C2003230FE0FB6801
:102DA0001B681A68BB681340BA689A420CBF0123BB
:102DB0000023DBB21A46FB799A429FD000231846C3
:102DC0004037BD4680BD00002DE9B04FC0B000AF18
:102DD000C7F8F400D7F8F4301B681B6923F440509F
:102DE000D7F8F430D968D7F8F4301A6840EA01030C
:102DF0001361D7F8F4309A68D7F8F4301B691A4396
:102E0000D7F8F4305B691A43D7F8F430DB69134321
:102E1000C7F8F830D7F8F4301B68DB6823F41641A4
:102E200021F00C01D7F8F4301A68D7F8F8300B43CA
:102E3000D360D7F8F4301B685B6923F44070D7F88F
:102E4000F4309969D7F8F4301A6840EA0103536105
:102E5000D7F8F4301A688F4B9A4205D0D7F8F4307F
:102E60001A688D4B9A4204D1FFF7AAFDC7F8FC00FF
:102E700003E0FFF791FDC7F8FC00D7F8F430DB69F9
:102E8000B3F5004F40F00C81D7F8FC300022C7F8B2
:102E9000E830C7F8EC20D7E93A4522462B4691188E
:102EA000B9655B41FB65D7E91623214612EB0108A2
:102EB000294643EB01094FF000024FF000034FEAAF
:102EC000C90343EA58734FEAC8029046994623461D
:102ED00018EB0303C7F8E0302B4649EB0303C7F8B0
:102EE000E430D7F8F4305B680022C7F8D830C7F870
:102EF000DC20D7E936120B46DB183B65134642EB64
:102F000003037B65D7E91423D7E93801FDF7C4FB38
:102F100002460B46614BA3FB02235B091C01D7F859
:102F2000FC300022C7F8D030C7F8D420D7E9348964
:102F300042464B469118B9645B41FB64D7E91223C2
:102F4000414612EB010A494643EB010B4FF00002E8
:102F50004FF000034FEACB0343EA5A734FEACA0229
:102F600092469B4643461AEB0303C7F8C8304B46CC
:102F70004BEB0303C7F8CC30D7F8F4305B68002282
:102F8000C7F8C030C7F8C420D7E930120B46DB18A9
:102F90003B64134642EB03037B64D7E91023D7E974
:102FA0003201FDF779FB02460B4611463B4BA3FB72
:102FB00001235B09642202FB03F3CB1ADB0003F15C
:102FC0003202364BA3FB02235B095B0003F4F87368
:102FD0001C44D7F8FC300022C7F8B830C7F8BC2032
:102FE000D7E92E8942464B469118B9635B41FB6392
:102FF000D7E90E2341465118396349464B417B635B
:103000004FF000024FF00003D7E90CAB5946CB005C
:10301000514643EA51735146CA00104619460346C9
:1030200042469B18C7F8B0304B460A4642EB0303B2
:10303000C7F8B430D7F8F4305B680022C7F8A8307E
:10304000C7F8AC20D7E92A120B46DB18BB6213463F
:1030500042EB0303FB62D7E90A23D7E92C01FDF712
:103060001BFB02460B460D4BA3FB02135B096421BD
:1030700001FB03F3D31ADB003233084AA2FB03231C
:103080005B0903F00702D7F8F4301B6822449A600A
:1030900005E100BF00100140001401401F85EB5105
:1030A000D7F8FC300022C7F8A030C7F8A420D7E931
:1030B000288942464B46911839625B417B62D7E9C9
:1030C000082341465418494643EB01054FF00002DE
:1030D0004FF00003EB0043EA5473E20014461D4630
:1030E0004346E318C7F898304B4645EB0303C7F84F
:1030F0009C30D7F8F4305B680022C7F89030C7F8EE
:1031000094204FF000024FF00003D7E924452946F0
:103110008B00214643EA917321468A00D7E92601B4
:10312000FDF7BAFA02460B46604BA3FB02235B098C
:103130001C01D7F8FC300022C7F88830C7F88C2073
:10314000D7E9228942464B469118B9615B41FB6140
:10315000D7E9062341465118396149464B417B6105
:103160004FF000024FF00003D7E904AB5946CB0003
:10317000514643EA51735146CA0010461946034668
:1031800042469B18C7F880304B460A4642EB030381
:10319000C7F88430D7F8F4305B680022BB67FA6761
:1031A0004FF000024FF00003D7E91E8949468B001B
:1031B000414643EA917341468A00D7E92001FDF771
:1031C0006BFA02460B46394BA3FB02135B096421E1
:1031D00001FB03F3D31A1B013233344AA2FB03234E
:1031E0005B0903F0F0031C44D7F8FC3000223B6776
:1031F0007A67D7E91C8942464B469118B9605B4112
:10320000FB60D7E9022341465118396049464B41DA
:103210007B604FF000024FF00003D7E900AB594646
:10322000CB00514643EA51735146CA001046194635
:10323000034642469B18BB664B460A4642EB0303D5
:10324000FB66D7F8F4305B6800223B667A664FF085
:1032500000024FF00003D7E9188949468B00414628
:1032600043EA917341468A00D7E91A01FDF714FA3F
:1032700002460B460D4BA3FB02135B09642101FBC5
:1032800003F3D31A1B013233084AA2FB03235B0961
:1032900003F00F02D7F8F4301B6822449A6000BF95
:1032A00007F58077BD46BDE8B08F00BF1F85EB51A5
:1032B000014B1868704700BF1000002070B50D4D1D
:1032C0000D4C641BA4100026A64209D10B4D0C4CDA
:1032D00000F08EFC641BA4100026A64205D170BD30
:1032E00055F8043B98470136EEE755F8043B9847FC
:1032F0000136F2E7F03C0008F03C0008F03C000822
:10330000F43C000802440346934200D1704703F89E
:10331000011BF9E70EB400B59CB01DAB02900690FE
:103320006FF00041094807910491094953F8042BB3
:1033300005910068019302A900F068F8029B002241
:103340001A701CB05DF804EB03B070471000002049
:103350000802FFFF2DE9F0478E689E4282460C4628
:1033600090461F4638D88A8912F4906F32D025686B
:103370000969A5EB0109656905EB450505EBD575FF
:1033800001334B446D109D4238BF1D46530531D566
:10339000294600F063FB064650B90C23CAF80030FA
:1033A000A38943F04003A3814FF0FF30BDE8F087CD
:1033B00021694A4600F0BEFAA38923F4906343F0E2
:1033C0008003A381266165614E44A5EB0905266053
:1033D000A5603E46BE4200D93E4620683246414680
:1033E00000F0B6FAA3689B1BA360236833442360F4
:1033F0000020DBE72A4600F0A5FB06460028E1D1C5
:103400002169504600F0BEFAC7E700002DE9F04FF1
:1034100098468B891B069DB007460D4614460ED56F
:103420000B6963B9402100F019FB2860286120B9BD
:103430000C233B604FF0FF30D1E040236B61002351
:10344000099320238DF82930CDF80C803023DFF844
:10345000A8818DF82A304FF0010923469A4613F8C7
:10346000012B0AB1252AF9D1BAEB040B0BD05B462C
:10347000224629463846FFF76DFF013000F0AA804A
:10348000099A5A4409929AF80030002B00F0A28061
:1034900000234FF0FF32CDE905230AF1010A04931E
:1034A00007938DF853301A935446052214F8011BE4
:1034B0005148FCF795FE049AD8B9D00644BF2023A2
:1034C0008DF85330110744BF2B238DF853309AF8F1
:1034D00000302A2B15D0079A544600204FF00A0CD2
:1034E000214611F8013B303B092B4ED9B0B1079270
:1034F00014E0A0EB080309FA03F313430493A24674
:10350000D2E7039B191D1B680391002BBBBF5B42D5
:1035100042F0020207930793B8BF049223782E2B40
:103520000CD163782A2B35D1039B1A1D1B6803929B
:10353000002BB8BF4FF0FF3302340593DFF8C8A06B
:10354000217803225046FCF74BFE40B14023A0EB0C
:103550000A0003FA00F0049B03430134049314F8B7
:10356000011B26488DF828100622FCF739FE00289A
:1035700038D0234B1BBB039B073323F007030833CF
:103580000393099B3344099367E70CFB02320C4613
:103590000120A5E700230134059319464FF00A0CDA
:1035A000204610F8012B303A092A03D9002BC5D048
:1035B0000591C3E70CFB012104460123F0E703ABAF
:1035C00000932A460F4B04A93846AFF30080421CF3
:1035D0000646D6D1AB895B063FF52CAF09981DB0E6
:1035E000BDE8F08F03AB00932A46064B04A938468A
:1035F00000F07AF8EBE700BFB43C0008BE3C0008DE
:103600000000000055330008BA3C00082DE9F047DF
:10361000164699468A680B69DDF820809342B8BF48
:103620001346336091F8432007460C460AB1013334
:1036300033602368990642BF3368023333602568DC
:1036400015F0060506D104F1190AE36832689B1AE1
:10365000AB4226DC94F84320131E226818BF0123D6
:1036600092062BD404F1430249463846C047013044
:103670001ED02368E568326803F00603042B08BFF8
:10368000AD1AA36822690CBF25EAE57500259342AF
:10369000C4BF9B1AED1800261A34B5421AD1002077
:1036A00008E00123524649463846C047013003D15D
:1036B0004FF0FF30BDE8F0870135C6E7E1185A1C2E
:1036C000302081F84300224494F8451082F84310DA
:1036D0000233C7E70123224649463846C047013036
:1036E000E6D00136D9E700002DE9FF470F7E0C9D9B
:1036F000782F914680460C469A4601F1430207D83E
:10370000622F0AD8002F00F0D880582F00F0A38035
:1037100004F1420584F842703AE0A7F16303152BE7
:10372000F6D801A151F823F0813700089537000839
:103730001137000811370008113700081137000849
:1037400095370008113700081137000811370008B5
:1037500011370008A1380008C53700088338000871
:103760001137000811370008C33800081137000866
:10377000C537000811370008113700088B380008DA
:103780002B681A1D1B682A6004F1420584F8423038
:103790000123A3E020682968060601F104030AD585
:1037A0000E682B60002E03DA2D23764284F8433016
:1037B0005E480A2319E00E682B6010F0400F18BF16
:1037C00036B2EFE72B682068191D2960010601D584
:1037D0001E6802E04606FBD51E8854486F2F0CBFBA
:1037E00008230A23002184F843106568A560002D92
:1037F000A2BF216821F0040121600EB9002D4DD037
:103800001546B6FBF3F103FB1167C75D05F8017DB3
:103810003746BB420E46F4D9082B0BD12368DE078E
:1038200008D5236961689942DEBF302305F8013C61
:1038300005F1FF35521B2261CDF800A04B4603AACB
:1038400021464046FFF7E2FE01304CD14FF0FF30F9
:1038500004B0BDE8F087354881F8457029682368D1
:1038600051F8046B29601D0614D5DF0744BF43F0EF
:10387000200323601EB9236823F020032360102354
:10388000B0E7236843F0200323607823284884F8B6
:103890004530E3E7590648BFB6B2E6E71546BBE751
:1038A0002B6826686169181D286035061B6801D5DC
:1038B000196002E07006FBD51980002323611546CC
:1038C000BAE72B681A1D2A601D6862680021284625
:1038D000FCF786FC08B1401B60606368236100232D
:1038E00084F84330A8E723692A4649464046D04732
:1038F0000130ABD023689B0713D4E068039B984248
:10390000B8BF1846A4E70123324649464046D0478F
:1039100001309BD00135E36803995B1AAB42F2DCBE
:10392000EBE7002504F11906F5E700BFC53C0008E8
:10393000D63C00080A44914200F1FF3300D17047A1
:1039400010B511F8014B03F8014F9142F9D110BDA8
:10395000884210B501EB020402D98442234607D8FD
:10396000431EA14208D011F8012B03F8012FF8E7FC
:10397000024401468A4200D110BD13F8014D02F8FD
:10398000014DF7E737B5002944D051F8043C0190C8
:10399000002BA1F10404B8BFE41800F013F91E4A8B
:1039A0000198136833B96360146003B0BDE8304018
:1039B00000F00EB9A34208D9256861198B4201BFF6
:1039C00019685B6849192160EDE71A465B680BB11D
:1039D000A342FAD911685518A5420BD12468214495
:1039E0005418A3421160E0D11C685B685360214405
:1039F0001160DAE702D90C230360D6E72568611964
:103A00008B4204BF19685B68636004BF4919216079
:103A10005460CAE703B030BDC801002070B50E4E37
:103A20000C463168054611B900F0BCF830602146FB
:103A3000284600F0B7F8431C0AD0C41C24F0030445
:103A4000A04207D0211A284600F0ACF8013001D17D
:103A50004FF0FF34204670BDCC0100202DE9F0412D
:103A6000CD1C25F0030508350C2D38BF0C25002D85
:103A7000074601DBA94205D90C233B6000263046EE
:103A8000BDE8F0812E4E00F09DF833681C4634BB33
:103A900029463846FFF7C2FF431C04464DD134681F
:103AA0002646002E40D123683146384604EB0308F1
:103AB00000F078F880453AD1216803356D1A25F079
:103AC000030508350C2D38BF0C2529463846FFF76D
:103AD000A5FF01302BD023682B4423600EE0226821
:103AE000521B1ED40B2A16D96119A342256018BF98
:103AF0005960636808BF316062514B60384604F119
:103B00000B0600F065F826F00706231DF21AB6D062
:103B10009B1BA350B3E76268A3420CBF32605A609C
:103B2000ECE723466468B2E734467668B9E70C23CD
:103B30003B60384600F04CF8A1E72560DEE700BFA7
:103B4000C80100202DE9F041804614460E4621B9F7
:103B5000BDE8F0411146FFF781BF2AB9FFF712FF18
:103B600025462846BDE8F08100F038F88442074633
:103B700002D8B4EB500F12D821464046FFF76EFF33
:103B800005460028EDD0BC422246314628BF3A46C1
:103B9000FFF7D0FE31464046FFF7F4FEE1E7354639
:103BA000DFE7000038B5064D0023044608462B60C9
:103BB000FDF7EAFA431C02D12B6803B1236038BD3C
:103BC000D0010020014800F011B800BFD40100204E
:103BD000014800F00CB800BFD401002051F8043CAB
:103BE000181F002BBCBF0B58C01870477047704798
:103BF000F8B500BFF8BC08BC9E467047F8B500BFDA
:083C0000F8BC08BC9E467047A9
:103C080055706461746520617661696C61626C6588
:103C18002070726573732027792720666F7220756C
:103C280070646174650A0D005570646174656400A0
:103C3800557064617465204661696C6564000000B4
:103C480057656C636F6D6520746F20626F6F746C5D
:103C58006F616465720D0A004552524F52000000B0
:103C6800496E76616C696420636D640A0D0000001A
:103C780073656E643D25640A0D0000004A756D7019
:103C880020746F2075736572000000004552524F12
:103C980052000000000000000000000001020304C0
:103CA800060708090000000001020304232D302B39
:103CB8002000686C4C006566674546470030313225
:103CC800333435363738394142434445460030317C
:103CD80032333435363738396162636465660000DB
:083CE800E0C9FF7F01000000AC
:043CF000B501000812
:043CF4009101000832
:103CF800000008080024F400100000000100000083
:103D08001400002000000000000000000000000077
:103D1800000000000000000000000000000000009B
:103D2800000000000000000000000000000000008B
:103D3800000000000000000000000000000000007B
:103D4800000000000000000000000000000000006B
:103D5800000000000000000000000000000000005B
:043D68000000000057
:04000005080014E9F2
:00000001FF
